:020000040800F2
:1000000068060020290200083102000833020008B7
:10001000350200083702000839020008000000001D
:100020000000000000000000000000003B0200088B
:100030003D020008000000003F02000841020008E5
:10004000430200084302000843020008430200087C
:100050004302000843020008E502000843020008CA
:10006000430200084302000843020008430200085C
:10007000430200084302000843020008430200084C
:10008000430200084302000843020008430200083C
:10009000430200084302000843020008430200082C
:1000A000430200084302000843020008430200081C
:1000B000430200084302000843020008430200080C
:1000C00043020008430200084302000843020008FC
:1000D00043020008430200084302000843020008EC
:1000E00043020008430200084302000843020008DC
:1000F00043020008430200084302000843020008CC
:1001000043020008430200084302000843020008BB
:1001100043020008430200084302000843020008AB
:10012000430200084302000843020008430200089B
:10013000430200084302000843020008430200088B
:10014000430200084302000843020008430200087B
:10015000430200084302000843020008430200086B
:10016000430200084302000843020008430200085B
:100170004302000843020008430200080000000098
:10018000430200084302000800F002F800F03CF8C7
:100190000AA090E8000C82448344AAF10107DA45E2
:1001A00001D100F031F8AFF2090EBAE80F0013F0F8
:1001B000010F18BFFB1A43F0010318478C0200001F
:1001C000AC020000103A24BF78C878C1FAD85207B0
:1001D00024BF30C830C144BF04680C6070470000C1
:1001E0000023002400250026103A28BF78C1FBD840
:1001F000520728BF30C148BF0B6070471FB500F0E1
:100200001DF91FBD10B510BD00F031F81146FFF704
:10021000F5FF00F0DDF800F04FF803B4FFF7F2FF50
:1002200003BC00F057F80000094880470948004720
:10023000FEE7FEE7FEE7FEE7FEE7FEE7FEE7FEE796
:10024000FEE7FEE704480549054A064B70470000F3
:100250003D030008890100086800002068060020AE
:10026000680200206802002070477047704775469A
:1002700000F02CF8AE4605006946534620F0070012
:10028000854618B020B5FFF7DDFFBDE820404FF0F0
:1002900000064FF000074FF000084FF0000B21F070
:1002A0000701AC46ACE8C009ACE8C009ACE8C0093D
:1002B000ACE8C0098D46704710B50446AFF3008026
:1002C0002046BDE81040FFF7A8BF00000048704777
:1002D0000400002001491820ABBEFEE72600020002
:1002E000704700001248006800F40050F0B1104858
:1002F000006840F400500E4908600E480068401C39
:100300000C490860086800EBD0714910A0EB41016E
:1003100031B90948006840F470400749086005E0B9
:100320000548006840F070400349086070470000CD
:10033000143C014000000020180C024014480068E2
:1003400040F47000124908601248006840F0010053
:100350001049086000200F49083108600D48006806
:100360000D4908400B4908600C48091D0860081F2A
:10037000006820F48020091F0860002005490C3126
:1003800008604FF000600249803908607047000043
:1003900088ED00E000380240FFFFF6FE1030002438
:1003A0000A48006840F4005008490860081D0068C9
:1003B00040F40050091D0860081D006840F400501A
:1003C000091D08600020091D08607047003C0140BD
:1003D00000F004F8FFF7E4FF00BFFEE714480068F0
:1003E00040F480401249086011481438006840F019
:1003F00009000F49143908600E48006840F0AA400F
:100400000C4908600B480830006840F07F400949FB
:1004100008310860081F006820F48050091F086038
:100420000548006800F002000349086070470000BA
:1004300044380240000C0240000002404FF040707F
:10044000E1EE100A70470000680400080000002078
:1004500004000000C40100086C040008040000202F
:0C04600064060000E0010008000000003D
:0400000508000229C4
:00000001FF
