:020000040800F2
:1000000068060020290200083102000833020008B7
:10001000350200083702000839020008000000001D
:100020000000000000000000000000003B0200088B
:100030003D020008000000003F02000841020008E5
:10004000430200084302000843020008430200087C
:10005000430200084302000843020008430200086C
:10006000430200084302000843020008430200085C
:10007000430200084302000843020008430200084C
:10008000430200084302000843020008430200083C
:10009000430200084302000843020008430200082C
:1000A000430200084302000843020008430200081C
:1000B000430200084302000843020008430200080C
:1000C00043020008430200084302000843020008FC
:1000D00043020008430200084302000843020008EC
:1000E00043020008430200084302000843020008DC
:1000F00043020008430200084302000843020008CC
:1001000043020008430200084302000843020008BB
:1001100043020008430200084302000843020008AB
:10012000430200084302000843020008430200089B
:10013000430200084302000843020008430200088B
:10014000430200084302000843020008430200087B
:10015000430200084302000843020008430200086B
:10016000430200084302000843020008430200085B
:100170004302000843020008430200080000000098
:10018000430200084302000800F002F800F03CF8C7
:100190000AA090E8000C82448344AAF10107DA45E2
:1001A00001D100F031F8AFF2090EBAE80F0013F0F8
:1001B000010F18BFFB1A43F001031847D8020000D3
:1001C000F8020000103A24BF78C878C1FAD8520764
:1001D00024BF30C830C144BF04680C6070470000C1
:1001E0000023002400250026103A28BF78C1FBD840
:1001F000520728BF30C148BF0B6070471FB500F0E1
:1002000043F91FBD10B510BD00F031F81146FFF7DE
:10021000F5FF00F009F900F04FF803B4FFF7F2FF23
:1002200003BC00F057F80000094880470948004720
:10023000FEE7FEE7FEE7FEE7FEE7FEE7FEE7FEE796
:10024000FEE7FEE704480549054A064B70470000F3
:10025000E502000889010008680000206806002007
:10026000680200206802002070477047704775469A
:1002700000F02CF8AE4605006946534620F0070012
:10028000854618B020B5FFF7DDFFBDE820404FF0F0
:1002900000064FF000074FF000084FF0000B21F070
:1002A0000701AC46ACE8C009ACE8C009ACE8C0093D
:1002B000ACE8C0098D46704710B50446AFF3008026
:1002C0002046BDE81040FFF7A8BF00000048704777
:1002D0000800002001491820ABBEFEE726000200FE
:1002E000704700001448006840F47000124908602C
:1002F0001248006840F001001049086000200F49D2
:10030000083108600D4800680D4908400B49086035
:100310000C48091D0860081F006820F48020091F90
:100320000860002005490C3108604FF00060024968
:10033000803908607047000088ED00E00038024016
:10034000FFFFF6FE103000242248006840F4807061
:10035000204908601F484438006840F001001D49EA
:10036000443908601C48806840F2014108431A493A
:1003700088600846806840F002008860174800687E
:1003800040F44030C1F804030846D0F8040320F0DC
:100390000100C1F804030846406820F0007048607E
:1003A0000846406840F0807048600846406840F069
:1003B000200048600846C06A20F48010C8620846E1
:1003C000C06A20F00100C8620846006920F0010000
:1003D0000861704744380240002001400423014076
:1003E0000F48406820F001000D49486008468068C9
:1003F00040F08040886000BF0948006800F00200BB
:100400000028F9D00648006820F00200044908607E
:100410000846C06C03490880084600887047000001
:10042000002001400000002000F012F8FFF78CFFD0
:1004300008E0FFF7D5FF0449088004480068401C25
:1004400002490860F5E700000000002004000020D9
:100450000B48006840F48040094908600848143897
:10046000006840F00100064914390860054800683A
:1004700040F00300034908600020C8607047000096
:1004800044380240000002404FF04070E1EE100A94
:1004900070470000B40400080000002008000000BD
:1004A000C4010008BC040008080000206006000029
:0C04B000E0010008000000000000000057
:040000050800018965
:00000001FF
